:100000000C9434000C9446000C9446000C9446006A
:100010000C9446000C9446000C9446000C94460048
:100020000C9446000C9446000C9446000C94460038
:100030000C9446000C9446000C9446000C94460028
:100040000C9446000C9449000C9446000C94460015
:100050000C9446000C9446000C9446000C94460008
:100060000C9446000C94460011241FBECFEFD8E03C
:10007000DEBFCDBF21E0A0E0B1E001C01D92A830FD
:10008000B207E1F70E9436020C94A6040C9400001B
:1000900008951F920F920FB60F9211242F933F9342
:1000A0004F935F936F937F938F939F93AF93BF9380
:1000B000EF93FF930E9408020E942102FF91EF91AB
:1000C000BF91AF919F918F917F916F915F914F9170
:1000D0003F912F910F900FBE0F901F901895ECE756
:1000E000F0E0808180648083EAE7F0E086E080834E
:1000F0008081806C80830895ECE7F0E09081907FB0
:10010000892B8083EAE7F0E08081806480838081AE
:10011000909178008091790089279827892793709A
:10012000089580E00C947C0081E00C947C0082E0D7
:100130000C947C0083E00C947C0086E00C947C00A2
:1001400087E00E947C0087E090E00895BC0190E089
:1001500080E00E94820320E030E040E85AE30E9401
:10016000390420E030E040EA50E40E94390420E005
:1001700030E040E05FE30E94390408954F925F92BF
:100180006F927F928F929F92AF92BF92EF92FF9267
:100190000F931F934B015C0129013A01E89477F812
:1001A000C801B7019F77A30192010E9470029B01D1
:1001B000AC01C301B2010E94E102A50194010E94B9
:1001C00039041F910F91FF90EF90BF90AF909F90D7
:1001D0008F907F906F905F904F900895BC0190E05A
:1001E00080E00E94820320E030E040E85AE30E9471
:1001F000390429EF3FE049EC5FE30E943904089598
:1002000026EE3EE245E652E40E943904089529E3D1
:100210003AEF4EE85CE30E9439040895219A239A4C
:10022000269A209A3C9A509A519A529A539A549AE2
:10023000559A569A579AE0E8F0E0F0938900E093D7
:100240008800808180688083808181608083E1E88C
:10025000F0E080818260808380E88093B400E0EBEE
:10026000F0E0908190689083908191609083E1EBC1
:10027000F0E090819260908387BD88BD84B58068EE
:1002800084BD84B5816084BD85B5826085BD0895D7
:10029000CF92DF92EF92FF926B017C019F7720E07B
:1002A00030E04FE753E40E9439040E94530370E0AA
:1002B000709389006093880020E030E0A901C701B5
:1002C000B6010E94340418161CF45F9A5C980BC0A7
:1002D00020E030E0A901C701B6010E94DC025F986E
:1002E00087FFF4CF5C9AFF90EF90DF90CF90089556
:1002F000CF92DF92EF92FF926B017C019F7720E01B
:1003000030E04FE753E40E9439040E9453036093A6
:10031000B40020E030E0A901C701B6010E94340416
:1003200018161CF45A9A59980BC020E030E0A90125
:10033000C701B6010E94DC025A9887FFF4CF599A90
:10034000FF90EF90DF90CF900895CF92DF92EF92E1
:10035000FF926B017C019F7720E030E04FE753E490
:100360000E9439040E94530368BD20E030E0A901D7
:10037000C701B6010E94340418161CF4589A2B9831
:100380000BC020E030E0A901C701B6010E94DC02E9
:10039000589887FFF4CF2B9AFF90EF90DF90CF9083
:1003A0000895CF92DF92EF92FF926B017C019F77CD
:1003B00020E030E04FE753E40E9439040E945303E9
:1003C00067BD20E030E0A901C701B6010E943404F6
:1003D00018161CF42E9A28980BC020E030E0A901D2
:1003E000C701B6010E94DC022E9887FFF4CF289A3D
:1003F000FF90EF90DF90CF900895249A8CB58064A1
:100400008CBD8CB580688CBD08951092070108954D
:10041000809107018F5F809307019EB5863020F0A1
:100420000E94050281E0089580E008951092000185
:10043000E1E0F1E0108211821282138214821582AF
:100440000895E091000181E08E0F80930001F0E0BB
:10045000EF5FFE4F80818EBD80910001863020F0DD
:100460000E94160281E0089580E008950E940E0126
:100470000E946F000E94FD01789460E070E080E0CF
:100480009FE30E94480160E070E080E89FEB0E94DB
:10049000780160E070E080E49FE30E94A50160E0E5
:1004A00070E0CB010E94D1010E9491000E94940053
:1004B0000E9497000E949A000E949D000E94A00046
:1004C0003C9A90E188B1892788B92FE73AE186E024
:1004D000215030408040E1F700C00000F3CF505879
:1004E000BB27AA270E9487020C94FA030E94EC0300
:1004F00038F00E94F30320F039F49F3F19F426F4FA
:100500000C94E9030EF4E095E7FB0C94E303E92F68
:100510000E940B0458F3BA17620773078407950704
:1005200020F079F4A6F50C942D040EF4E0950B2E32
:10053000BA2FA02D0B01B90190010C01CA01A00135
:100540001124FF27591B99F0593F50F4503E68F190
:100550001A16F040A22F232F342F4427585FF3CFD1
:10056000469537952795A795F0405395C9F77EF4A2
:100570001F16BA0B620B730B840BBAF09150A1F0EB
:10058000FF0FBB1F661F771F881FC2F70EC0BA0F71
:10059000621F731F841F48F4879577956795B795F9
:1005A000F7959E3F08F0B0CF9395880F08F09927F4
:1005B000EE0F9795879508950E94BF0308F481E098
:1005C00008950E94F5020C94FA030E94F30358F078
:1005D0000E94EC0340F029F45F3F29F00C94E30300
:1005E00051110C942E040C94E9030E940B0468F33F
:1005F0009923B1F3552391F3951B550BBB27AA27DC
:1006000062177307840738F09F5F5F4F220F331F15
:10061000441FAA1FA9F335D00E2E3AF0E0E832D0DD
:1006200091505040E695001CCAF72BD0FE2F29D0E0
:10063000660F771F881FBB1F261737074807AB07B2
:10064000B0E809F0BB0B802DBF01FF2793585F4F27
:100650003AF09E3F510578F00C94E3030C942E047D
:100660005F3FE4F3983ED4F3869577956795B79509
:10067000F7959F5FC9F7880F911D9695879597F914
:100680000895E1E0660F771F881FBB1F621773078D
:100690008407BA0720F0621B730B840BBA0BEE1FA2
:1006A00088F7E09508950E94130488F09F5798F00A
:1006B000B92F9927B751B0F0E1F0660F771F881F67
:1006C000991F1AF0BA95C9F714C0B13091F00E9481
:1006D0002D04B1E008950C942D04672F782F8827FE
:1006E000B85F39F0B93FCCF3869577956795B395A8
:1006F000D9F73EF490958095709561957F4F8F4F17
:100700009F4F0895E89409C097FB3EF4909580951B
:10071000709561957F4F8F4F9F4F9923A9F0F92FC7
:1007200096E9BB279395F695879577956795B79545
:10073000F111F8CFFAF4BB0F11F460FF1BC06F5F2B
:100740007F4F8F4F9F4F16C0882311F096E911C03D
:10075000772321F09EE8872F762F05C0662371F05E
:1007600096E8862F70E060E02AF09A95660F771F72
:10077000881FDAF7880F9695879597F90895990F4E
:100780000008550FAA0BE0E8FEEF16161706E8075B
:10079000F907C0F012161306E407F50798F0621B7C
:1007A000730B840B950B39F40A2661F0232B242B51
:1007B000252B21F408950A2609F4A140A6958FEF70
:1007C000811D811D089597F99F6780E870E060E0C2
:1007D00008959FEF80EC089500240A9416161706DA
:1007E00018060906089500240A9412161306140622
:1007F00005060895092E0394000C11F4882352F085
:10080000BB0F40F4BF2B11F460FF04C06F5F7F4F3C
:100810008F4F9F4F089557FD9058440F551F59F023
:100820005F3F71F04795880F97FB991F61F09F3FDD
:1008300079F087950895121613061406551FF2CF06
:100840004695F1DF08C0161617061806991FF1CF56
:1008500086957105610508940895E894BB2766277D
:100860007727CB0197F908950E94BF0308F48FEF13
:1008700008950E944C040C94FA030E94EC0338F093
:100880000E94F30320F0952311F00C94E3030C94E1
:10089000E90311240C942E040E940B0470F3959F1D
:1008A000C1F3950F50E0551F629FF001729FBB2767
:1008B000F00DB11D639FAA27F00DB11DAA1F649F03
:1008C0006627B00DA11D661F829F2227B00DA11DB6
:1008D000621F739FB00DA11D621F839FA00D611D3C
:1008E000221F749F3327A00D611D231F849F600D5D
:1008F000211D822F762F6A2F11249F5750409AF086
:10090000F1F088234AF0EE0FFF1FBB1F661F771F11
:10091000881F91505040A9F79E3F510580F00C94DC
:10092000E3030C942E045F3FE4F3983ED4F38695E2
:1009300077956795B795F795E7959F5FC1F7FE2B7C
:10094000880F911D9695879597F90895F894FFCF94
:00000001FF
